:100000000C9462000C948A000C948A000C948A0070
:100010000C948A000C948A000C948A000C948A0038
:100020000C948A000C948A000C948A000C943C0472
:100030000C948A000C948A000C948A000C948A0018
:100040000C949A030C948A000C940A040C94E40314
:100050000C948A000C948A000C948A000C948A00F8
:100060000C948A000C948A000000000024002700F1
:100070002A0000000000250028002B0000000000DE
:1000800023002600290004040404040404040202DA
:100090000202020203030303030301020408102007
:1000A0004080010204081020010204081020000012
:1000B0000008000201000003040700000000000027
:1000C0000000FD0411241FBECFEFD8E0DEBFCDBF7E
:1000D00011E0A0E0B1E0ECE7FDE002C005900D9278
:1000E000A831B107D9F721E0A8E1B1E001C01D9224
:1000F000A73EB207E1F710E0C2E6D0E004C02197C6
:10010000FE010E94B106C136D107C9F70E945B0506
:100110000C94BC060C940000CF92DF92EF92FF92F9
:10012000DC01A03282E0B8070CF03EC0B7FD06C08B
:10013000A53BB1052CF0A4EBB0E002C0A0E0B0E01C
:100140008091E50128E830E06901C81AD10887FDEF
:10015000D394CC0CDD1CCC0CDD1C0D2C000CEE085B
:10016000FF088091E60128E532E0281B310987FD70
:100170003395220F331F220F331FA901330F660B54
:10018000770B9A01AB012C193D094E095F090E94BA
:100190006C0624EB30E040E050E00E944206C20EC4
:1001A000D31EE41EF51ED6019091E4019C3098F513
:1001B0008091E50148E850E0481B510987FD5395BF
:1001C000440F551F440F551FA417B5078CF080919D
:1001D000E60128E532E0281B310987FD3395220F1F
:1001E000331F220F331FAD012A173B070CF4A9015F
:1001F00042505109440F551F2FB7F894892F90E0B2
:10020000FC01EE0FFF1F8E0F9F1FFC01E154FE4FFC
:10021000528341832FBFFF90EF90DF90CF900895DE
:10022000CF92DF92EF92FF920F931F93CF93DF93C2
:100230006C017A018B01C0E0D0E0CE15DF0589F0BA
:10024000D8016D918D01D601ED91FC910190F08165
:10025000E02DC6010995892B11F47E0102C021967B
:10026000ECCFC701DF91CF911F910F91FF90EF90DD
:10027000DF90CF900895FC01918D828D981761F0E9
:10028000828DDF01A80FB11D5D968C91928D9F5FCD
:100290009F73928F90E008958FEF9FEF0895FC0178
:1002A000918D828D981731F0828DE80FF11D858D2B
:1002B00090E008958FEF9FEF0895FC01918D228DBE
:1002C000892F90E0805C9F4F821B91098F73992743
:1002D000089582E291E00E945D0121E0892B09F4FA
:1002E00020E0822F0895FC01848DDF01A80FB11D4D
:1002F000A35ABF4F2C91848D90E001968F7399275C
:10030000848FA689B7892C93A089B1898C91806448
:100310008C93938D848D981306C00288F389E02D09
:1003200080818F7D80830895EF92FF920F931F93BA
:10033000CF93DF93EC0181E0888F9B8D8C8D981398
:1003400005C0E889F989808185FD24C0F62E0B8DD2
:1003500010E00F5F1F4F0F731127E02E8C8DE812F6
:100360000CC00FB607FCFACFE889F989808185FFB8
:10037000F5CFCE010E947301F1CF8B8DFE01E80F06
:10038000F11DE35AFF4FF0820B8FEA89FB898081D0
:10039000806207C0EE89FF896083E889F9898081DE
:1003A0008064808381E090E0DF91CF911F910F9175
:1003B000FF90EF900895CF93DF93EC01888D882311
:1003C000C9F0EA89FB89808185FD05C0A889B989C2
:1003D0008C9186FD0FC00FB607FCF5CF808185FF9D
:1003E000F2CFA889B9898C9185FFEDCFCE010E940B
:1003F0007301E7CFDF91CF91089580E090E0892BE2
:1004000029F00E94690181110C9400000895833045
:1004100081F028F4813099F08230A1F0089587307E
:10042000A9F08830B9F08430D1F4809180008F7DBC
:1004300003C0809180008F7780938000089584B5F9
:100440008F7702C084B58F7D84BD08958091B00000
:100450008F7703C08091B0008F7D8093B0000895A6
:10046000CF93DF93282F30E0F901E255FF4F8491BD
:10047000F901E656FF4FD491F901EA57FF4FC491B5
:10048000CC2391F081110E940702EC2FF0E0EE0FD7
:10049000FF1FE458FF4FA591B491EC91ED2381E04B
:1004A00090E021F480E002C080E090E0DF91CF9105
:1004B00008951F93CF93DF93282F30E0F901E25581
:1004C000FF4F8491F901E656FF4FD491F901EA57A5
:1004D000FF4FC491CC23C9F0162F81110E9407024F
:1004E000EC2FF0E0EE0FFF1FEE58FF4FA591B491F7
:1004F0008FB7F894111105C09C91ED2FE095E92379
:1005000002C0EC91ED2BEC938FBFDF91CF911F9147
:100510000895CF93DF9390E0FC01E656FF4F2491BE
:10052000FC01EA57FF4F8491882361F190E0880F26
:10053000991FFC01E859FF4FC591D491FC01EE5879
:10054000FF4FA591B491611109C09FB7F8948881BC
:10055000209582238883EC912E230BC0623061F4B6
:100560009FB7F8943881822F809583238883EC91FC
:100570002E2B2C939FBF06C08FB7F894E8812E2BAB
:1005800028838FBFDF91CF9108958091E4018C3053
:1005900008F051C061E085E00E9489028091E40189
:1005A000E82FF0E09F01220F331FE20FF31FE15409
:1005B000FE4F9081907C956090831092E50110929F
:1005C000E6016CE00E94A5069CE0899FB001112421
:1005D00040E050E09A01260F371FF901EE0FFF1F90
:1005E0002E0F3F1FF901E154FE4F908196FD16C07A
:1005F0004F5F5F4F4C30510569F781110FC010926A
:10060000800082E080938100109285001092840027
:10061000B19A80916F00826080936F00E091E40155
:10062000F0E0CF01880F991FE80FF91FE154FE4F4A
:100630008081806480838091E4010895009769F04F
:10064000FC0101900020E9F73197AF01481B590BDD
:10065000BC0182E291E00C94100180E090E00895EA
:100660008F929F92AF92BF920F931F93CF93DF937E
:10067000CDB7DEB7A1970FB6F894DEBF0FBECDBFE2
:1006800019A2423008F44AE08E010F5D1F4F842EFC
:10069000912CA12CB12CA50194010E947406E62F87
:1006A000B901CA0101501109EA3014F4E05D01C03A
:1006B000E95CD801EC93232B242B252B61F7C8018F
:1006C0000E941E03A1960FB6F894DEBF0FBECDBFE9
:1006D000DF91CF911F910F91BF90AF909F908F901E
:1006E0000895CF92DF92EF92FF92CF93DF936B0149
:1006F0007C01E0912201F09123010190F081E02D35
:100700006DE282E291E00995EC0166277727CB0143
:100710006C197D098E099F094AE00E9430038C0FF5
:100720009D1FDF91CF91FF90EF90DF90CF900895C4
:100730000E94B7061F920F920FB60F9211242F93AB
:100740003F938F939F93AF93BF9380911E0190919E
:100750001F01A0912001B091210130911D0123E0E2
:10076000230F2D3720F40196A11DB11D05C026E8E9
:10077000230F0296A11DB11D20931D0180931E0120
:1007800090931F01A0932001B09321018091190142
:1007900090911A01A0911B01B0911C010196A11D1D
:1007A000B11D8093190190931A01A0931B01B0937E
:1007B0001C01BF91AF919F918F913F912F910F900D
:1007C0000FBE0F901F9018951F920F920FB60F92A9
:1007D00011242F933F934F935F936F937F938F9346
:1007E0009F93AF93BF93EF93FF9382E291E00E94B8
:1007F0007301FF91EF91BF91AF919F918F917F9185
:100800006F915F914F913F912F910F900FBE0F907D
:100810001F9018951F920F920FB60F9211242F93CD
:100820008F939F93EF93FF93E0913201F091330107
:100830008081E0913801F091390182FD12C09081F0
:1008400080913B018F5F8F7320913C01821751F0A3
:10085000E0913B01F0E0EE5DFE4F958F80933B0110
:1008600001C08081FF91EF919F918F912F910F9007
:100870000FBE0F901F9018951F920F920FB60F92F8
:1008800011242F933F934F935F936F937F938F9395
:100890009F93AF93BF93EF93FF938091180187FFCE
:1008A00005C010928500109284001BC02091180191
:1008B000022E000C330B8091E30190E028173907DA
:1008C00084F480911801082E000C990BFC01EE0FA6
:1008D000FF1F8E0F9F1FFC01E154FE4F808186FD9C
:1008E00015C0809118018F5F809318012091180125
:1008F000022E000C330B8091E30190E0281739079A
:10090000C4F4809118018C3064F113C080911801F7
:10091000082E000C990BFC01EE0FFF1F8E0F9F1F7E
:10092000FC01E154FE4F808160E08F730E94590208
:10093000D8CF8091840090918500049680349C49A2
:1009400018F480E49CE905C08091840090918500B2
:10095000049690938900809388008FEF809318010C
:100960003BC0209184003091850080911801082EB1
:10097000000C990BFC01EE0FFF1F8E0F9F1FFC0157
:10098000E154FE4F81819281820F931F90938900E1
:100990008093880080911801082E000C990BFC01AF
:1009A000EE0FFF1F8E0F9F1FFC01E154FE4F808151
:1009B00086FF12C080911801082E000C990BFC01D3
:1009C000EE0FFF1F8E0F9F1FFC01E154FE4F808131
:1009D00061E08F730E945902FF91EF91BF91AF9137
:1009E0009F918F917F916F915F914F913F912F9147
:1009F0000F900FBE0F901F90189510922501109226
:100A0000240188EE93E0A0E0B0E08093260190936B
:100A10002701A0932801B093290185E091E09093EC
:100A200023018093220185EC90E090932F01809325
:100A30002E0184EC90E0909331018093300180ECA2
:100A400090E0909333018093320181EC90E0909399
:100A500035018093340182EC90E0909337018093CC
:100A6000360186EC90E09093390180933801109222
:100A70003B0110923C0110923D0110923E01809189
:100A8000E3018C30A0F491E0980F9093E301809300
:100A9000E40190E0FC01EE0FFF1F8E0F9F1FFC0191
:100AA000E154FE4F88EB9BE09283818308958FEFA2
:100AB0008093E4010895789484B5826084BD84B500
:100AC000816084BD85B5826085BD85B5816085BD49
:100AD00080916E00816080936E0010928100809101
:100AE0008100826080938100809181008160809389
:100AF0008100809180008160809380008091B100AE
:100B000084608093B1008091B00081608093B000D8
:100B100080917A00846080937A0080917A0082606C
:100B200080937A0080917A00816080937A0080912E
:100B30007A00806880937A001092C100E0913201BF
:100B4000F091330182E08083E0912E01F0912F013A
:100B50001082E0913001F09131018FEC808310928E
:100B60003A01E0913601F091370186E08083E0910F
:100B70003401F0913501808180618083E0913401FE
:100B8000F0913501808188608083E0913401F0919B
:100B90003501808180688083E0913401F0913501D6
:100BA00080818F7D808360E08EE00E94890260E01A
:100BB0008FE00E948902C4EB80E10E94300201971D
:100BC00069F40E94C502109200018FE00E94300279
:100BD000892B09F049C080E090E010C081E10E94BB
:100BE0003002019771F40E94C502C09300018EE0AB
:100BF0000E9430020197C1F584EB90E00E948C00C6
:100C00000AC081E10E943002892B29F480E10E9410
:100C10003002892B49F18EE00E943002BC01990F0D
:100C2000880B990B97FF03C00E94710303C04AE031
:100C30000E94300381E191E00E941E038FE00E9438
:100C40003002BC01990F880B990B97FF03C00E94DB
:100C5000710303C04AE00E94300385E191E00E94E5
:100C60001E030E94FD01A8CFE091E401F0E0CF0156
:100C7000880F991FE80FF91FE154FE4F80818F7B89
:100C80008083C9CF052E97FB1EF400940E9459065D
:100C900057FD07D00E94740607FC03D04EF40C9455
:100CA000590650954095309521953F4F4F4F5F4FD6
:100CB000089590958095709561957F4F8F4F9F4FC8
:100CC00008950E949606A59F900DB49F900DA49F35
:100CD000800D911D11240895B7FF0C9461060E94A8
:100CE0006106821B930B0895A1E21A2EAA1BBB1B5F
:100CF000FD010DC0AA1FBB1FEE1FFF1FA217B307E8
:100D0000E407F50720F0A21BB30BE40BF50B661FFD
:100D1000771F881F991F1A9469F7609570958095C1
:100D200090959B01AC01BD01CF010895A29FB00138
:100D3000B39FC001A39F700D811D1124911DB29F0F
:100D4000700D811D1124911D0895991B79E004C037
:100D5000991F961708F0961B881F7A95C9F78095FA
:100D60000895EE0FFF1F0590F491E02D099481E0A6
:0C0D700090E0F8940C94BC06F894FFCFBF
:100D7C005A00000000940110015D013B014F01DBA2
:080D8C0001207C20000D0A008B
:00000001FF
